S01900004361725F5374617469635F44657369676E2E7372656375
S11300000C9432000C94F2010C944F000C944F00A9
S11300100C944F000C944E020C944F000C944F001F
S11300200C944F000C944F000C944F000C944F0010
S11300300C944F000C944F000C944F000C944F0000
S11300400C944F000C944F000C944F000C944F00F0
S11300500C944F00DB02E002E702EE02F502FC0220
S113006003030A0311241FBECFE5D8E0DEBFCDBFD2
S113007010E0A0E6B0E0E6E6FAE002C005900D92DA
S1130080A036B107D9F720E0A0E6B0E001C01D9288
S1130090A737B207E1F70E945F020C9431050C9474
S11300A0000080E00E94900081E00E9490000E9485
S11300B02D0380E00E941B0181E00E941B01089532
S11300C00E943A030E9449036D3330F00E942801D4
S11300D08FE50E94D800089581EE860F8D3178F463
S11300E00E943A0182E30E94D8002FEF81EE94E04F
S11300F0215080409040E1F700C0000008956E3127
S113010070F48EE10E94D8000E9431012FEF81EE3D
S113011094E0215080409040E1F700C00000089531
S1130120AF92CF92DF92EF920F93CF93C82FA12C6F
S1130130C12CD12CE12C00E020E030E045E060E867
S113014082E10E946402CC2319F0C130B1F029C0CD
S11301504FEF61E080E00E9443014FEF64E080E0F4
S11301600E94430140E061E080E00E94830140E09E
S113017061E080E00E94830114C04FEF62E080E000
S11301800E9443014FEF68E080E00E94430140E099
S113019062E080E00E94830140E068E080E00E9429
S11301A08301CF910F91EF90DF90CF90AF9008959E
S11301B0853630F464EF71E00E94190381E00895FC
S11301C080E00895882319F08130D1F032C066238D
S11301D061F0613071F541E080E00E94830140E00C
S11301E064E080E00E94830124C040E061E080E09C
S11301F00E94830141E064E080E00E94830119C011
S1130200662369F06130A9F441E062E080E00E9475
S1130210830140E068E080E00E9483010AC040E07E
S113022062E080E00E94830141E068E080E00E9497
S1130230830181E00895CF93C82F82E30E94D80000
S11302400E94BC0261E08C2F0E94E200CF910895CD
S113025061E080E00E94E20061E081E00E94E2004F
S1130260089560E080E00E94E20060E081E00E9486
S1130270E200089560E080E00E94E20061E081E035
S11302800E94E20008958130A1F028F08230F9F054
S1130290833059F10895442319F04F3F31F0089504
S11302A08AB3609568236ABB08958AB3682B6ABBD6
S11302B00895442319F04F3F31F0089587B36095B2
S11302C0682367BB089587B3682B67BB08954423ED
S11302D019F04F3F31F0089584B36095682364BBEF
S11302E0089584B3682B64BB0895442319F04F3FE9
S11302F031F0089581B36095682361BB089581B39B
S1130300682B61BB08954423D1F0413099F58130C5
S113031051F028F0823059F0833069F008958BB39E
S1130320682B6BBB089588B3682B68BB089585B3AD
S1130330682B65BB089582B3682B62BB0895813036
S113034059F028F0823069F0833081F008958BB33E
S1130350609568236BBB089588B36095682368BB78
S1130360089585B36095682365BB089582B360954D
S1130370682362BB0895EF920F938BB780648BBFA1
S113038085B7816085BF85B78D7F85BF6894EE246E
S1130390E6F800E020E041E060E080E00E94C50271
S11303A08FB780688FBF81E00F91EF900895FC01B3
S11303B0709160006091610050916200409163000F
S11303C030916400209165009091660080916700EF
S11303D07083618352834383348325839683878325
S11303E081E008951F920F920FB60F9211242F935C
S11303F03F934F935F936F937F938F939F93AF93A9
S1130400BF93CF93DF93EF93FF93809169008111A2
S113041009C014BC0E9413031092680081E0809309
S1130420690029C080916900813029F5A091680094
S113043084B5B0E0BA2FAA27A80FB11D2EE330E08F
S11304400E942A05DC01CB01809360009093610037
S1130450A0936200B0936300109264001092650050
S113046010926600109267000E94C1021092680008
S113047014BC10926900FF91EF91DF91CF91BF916D
S1130480AF919F918F917F916F915F914F913F9128
S11304902F910F900FBE0F901F9018951F920F92DF
S11304A00FB60F9211248F93809168008F5F809311
S11304B068008F910F900FBE0F901F9018950E94A7
S11304C051000E946000FDCFAF92EF920F93CF9343
S11304D0C42F0ABDEBBC9FB5382F3370932B9FBD3F
S11304E09FB5692B6FBD9EB58871892B8EBD2CBDC0
S11304F04FEF60E283E00E94430189B7A82AA9BEB6
S1130500C0936B00C230C1F028F4CC2349F0C13051
S113051061F02DC0C430F1F0B0F0C53011F127C046
S1130520109273001092720022C081E090E09093C8
S11305307300809372001BC088E090E09093730076
S11305408093720014C080E490E0909373008093D1
S113055072000DC080E091E090937300809372006C
S113056006C080E094E09093730080937200CF9172
S11305700F91EF90AF9008958EB5887F85608EBD02
S113058008958EB5887F8EBD0895EF920F9395B52B
S1130590692B862B85BD24BD03BD89B7E82AE9BE36
S11305A040936A0050E048305105D0F5FA01E65D09
S11305B0FF4F0C941505109271001092700030C01A
S11305C081E090E0909371008093700029C088E0EE
S11305D090E0909371008093700022C080E290E0DC
S11305E090937100809370001BC080E490E090931E
S11305F071008093700014C080E890E090937100C3
S1130600809370000DC080E091E09093710080931E
S1130610700006C080E094E09093710080937000B5
S11306200F91EF90089590916A0085B5892B85BD4F
S1130630089544E6489FC00111249C0136952795EE
S113064036952795ABE7B4E10E941B0596958795EF
S113065046BD17BC8ABD9BBD08950E94BB014FEFE8
S113066060E880E00E94430140E064E083E00E948F
S11306704301089541E060E880E00E94830185E33E
S11306808A95F1F7000040E060E880E00E94830171
S11306900895CF93DF93CDB7DEB728970FB6F894BC
S11306A0DEBF0FBECDBFCE0101960E94D7012981C6
S11306B03A814B815C816D817E818F8198850E9416
S11306C0190428E23BE64EE65EE40E94780320E04B
S11306D03CEF45E856E40E94A8040E94EA032896E9
S11306E00FB6F894DEBF0FBECDBFDF91CF91089552
S11306F00E948C030C946E040E94670458F00E94BC
S1130700600440F029F45F3F29F00C945704511120
S11307100C94A2040C945D040E947F0468F3992352
S1130720B1F3552391F3951B550BBB27AA276217E9
S11307307307840738F09F5F5F4F220F331F441FF6
S1130740AA1FA9F335D00E2E3AF0E0E832D091502A
S11307505040E695001CCAF72BD0FE2F29D0660F17
S1130760771F881FBB1F261737074807AB07B0E85A
S113077009F0BB0B802DBF01FF2793585F4F3AF060
S11307809E3F510578F00C9457040C94A2045F3FEB
S1130790E4F3983ED4F3869577956795B795F795E6
S11307A09F5FC9F7880F911D9695879597F90895CE
S11307B0E1E0660F771F881FBB1F6217730784076A
S11307C0BA0720F0621B730B840BBA0BEE1F88F779
S11307D0E09508950E94870488F09F5798F0B92FF8
S11307E09927B751B0F0E1F0660F771F881F991F62
S11307F01AF0BA95C9F714C0B13091F00E94A1045F
S1130800B1E008950C94A104672F782F8827B85F6E
S113081039F0B93FCCF3869577956795B395D9F7B9
S11308203EF490958095709561957F4F8F4F9F4FC3
S11308300895E894F92F96EBFF2381F0121613061E
S11308401406440B9395F695879577956795579578
S11308504040FF23B9F71BC099270895882351F41A
S11308609850D2F7872B762F652F542F432F322F92
S113087020E0B1F3121613061406440B88233AF051
S11308809A95440F551F661F771F881FCAF7552373
S11308904AF4440F551F11F460FF04C06F5F7F4F8B
S11308A08F4F9F4F880F9695879597F9089597F9DD
S11308B09F6780E870E060E008959FEF80EC089502
S11308C000240A941616170618060906089500242B
S11308D00A9412161306140605060895092E0394A5
S11308E0000C11F4882352F0BB0F40F4BF2B11F419
S11308F060FF04C06F5F7F4F8F4F9F4F089557FD78
S11309009058440F551F59F05F3F71F04795880F79
S113091097FB991F61F09F3F79F087950895121610
S113092013061406551FF2CF4695F1DF08C01616BC
S113093017061806991FF1CF86957105610508946D
S11309400895E894BB2766277727CB0197F9089584
S11309500E94BB040C946E040E94600438F00E9450
S1130960670420F0952311F00C9457040C945D0453
S113097011240C94A2040E947F0470F3959FC1F388
S1130980950F50E0551F629FF001729FBB27F00D39
S1130990B11D639FAA27F00DB11DAA1F649F66278E
S11309A0B00DA11D661F829F2227B00DA11D621FDD
S11309B0739FB00DA11D621F839FA00D611D221F97
S11309C0749F3327A00D611D231F849F600D211D7B
S11309D0822F762F6A2F11249F5750409AF0F1F0FE
S11309E088234AF0EE0FFF1FBB1F661F771F881F67
S11309F091505040A9F79E3F510580F00C94570444
S1130A000C94A2045F3FE4F3983ED4F38695779563
S1130A106795B795F795E7959F5FC1F7FE2B880F0C
S1130A20911D9695879597F90895EE0FFF1F0590F0
S1130A30F491E02D0994A29FB001B39FC001A39F3C
S1130A40700D811D1124911DB29F700D811D112403
S1130A50911D08950E941B05B7FF0895821B930BF7
S1090A600895F894FFCF95
S9030000FC
